:1000000017C031C030C02FC0CFC12EC02CC02BC0F4
:100010002AC029C028C027C026C025C024C001028C
:1000200004081020010101010101003600380037E9
:1000300011241FBECFE5D2E0DEBFCDBF10E0A0E6A9
:10004000B0E0ECE6F6E002C005900D92A23EB107EA
:10005000D9F721E0A2EEB0E001C01D92A93FB2079E
:10006000E1F7FED201C3CCCF1F920F920FB60F92D1
:1000700011242F933F938F939F93EF93FF9380913E
:10008000E4008BBD2091E2003091E300E32FFF27D5
:10009000E551FF4F80818093E4008091EB019091C6
:1000A000EC01820F931F9093E3008093E200FF9195
:1000B000EF919F918F913F912F910F900FBE0F90D5
:1000C0001F9018958091E5008823B9F083E018D23D
:1000D0009093E8008093E7009C0144E035952795D4
:1000E0004A95E1F72093E600880F991F880F991F22
:1000F0009093610080936000089583E001D224E032
:10010000959587952A95E1F72091E60030E08217D2
:10011000930719F481E08093E50008958BEE90E059
:10012000FC012E2F281B219321E0EB3EF207C9F79B
:100130000895EBEEF0E080E090E0282F220F21936D
:10014000019680389105C9F7EBE6F1E08FEF90E07A
:10015000819302978F3F2FEF9207D1F70895EBEE2F
:10016000F0E08FEF819391E0EB36F907D9F7EBE6FA
:10017000F1E081E0819391E0EB3EF907D9F7089532
:100180008130910531F08230910521F0892B19F4ED
:10019000D0CFE5CFC3CF08958091E9009091EA00D8
:1001A0000196833091052CF49093EA008093E90046
:1001B00004C01092EA001092E9008091E900909149
:1001C000EA00DECFEF92FF920F931F93CF93DF935E
:1001D000C0E0D0E00CEF1FE0D093EE01C093ED0142
:1001E000209739F0CE018F7E0F9719F0CF32D105CD
:1001F00021F461E080E0DAD10DC0CE018F7C079759
:1002000049F460E080E0D2D181E07AD18C3B924029
:100210000CF4C2DF81E0F9D10197A9F41092E50056
:10022000E090ED01F090EE0183E06AD1F701EE0F6E
:10023000FF1FEE59FF4FA4E0880F991FAA95E1F721
:100240009183808301C03EDFE091ED01F091EE01EA
:10025000EE0FFF1FEE59FF4F808191819093EC01CB
:100260008093EB018091600090916100B801681B60
:10027000790B882777FD8095982F04D12196C0347B
:10028000D10509F0A9CFDF91CF911F910F91FF9078
:10029000EF900895CF92DF92EF92FF920F931F930A
:1002A000CF93DF938C01C0E0D0E06B01EE24D7FC4C
:1002B000E094FE2CC017D10774F461E080E076D1A1
:1002C000C701B601DFD060E080E070D1C701B601A0
:1002D000D9D02196EFCFDF91CF911F910F91FF9051
:1002E000EF90DF90CF90089517B83D9A87B18C605A
:1002F00087B96AEF70E080E090E0C4D0369A369912
:10030000FECF85B1883628F064E670E088E090E0A2
:1003100004C06AEF70E081E090E0BCCF82E080BD75
:100320008CE084BB61E080E009D161E084E006D12B
:1003300060E083E003D160E082E000D160E081E032
:10034000FDD0D2DF17B887B5826087BD87EC90E01B
:100350000197F1F700C0000007B400FEFDCF87B59C
:10036000846087BDF89480E68CBD8FEF8DBD81E001
:1003700080BF93E09ABD83BF82E089BF7894D9DEC5
:1003800060E47CE980E090E07DC083B7887F83BF34
:100390008AB58C7F81608ABD83B7877F83BF83B72F
:1003A000887F836083BF08951F920F920FB60F92CC
:1003B00011242F933F938F939F93AF93BF9380917B
:1003C000F0019091F101A091F201B091F30130910F
:1003D000EF0126E0230F2D3730F029E8230F039695
:1003E000A11DB11D03C00296A11DB11D2093EF01F7
:1003F0008093F0019093F101A093F201B093F30187
:100400008091F4019091F501A091F601B091F7016E
:100410000196A11DB11D8093F4019093F501A09365
:10042000F601B093F701BF91AF919F918F913F91EA
:100430002F910F900FBE0F901F9018953FB7F89413
:100440008091F4019091F501A091F601B091F7012E
:100450002FB508B602FE05C02F3F19F00196A11D69
:10046000B11D3FBF6627782F892F9A2F620F711D0C
:10047000811D911D43E0660F771F881F991F4A95C4
:10048000D1F70895CF92DF92EF92FF92CF93DF934F
:100490006B017C01D3DFEB01C114D104E104F10451
:1004A00071F0CCDF6C1B7D0B683E7340A8F381E0DC
:1004B000C81AD108E108F108C851DC4FEDCFDF912F
:1004C000CF91FF90EF90DF90CF900895789480B710
:1004D000806880BF80B7806480BF8CB580648CBD2D
:1004E0008FEF8DBD80B7807F876080BF89B78460C4
:1004F00089BF4BDF86B1887F866086B9379A0895B9
:10050000863008F086503091F80127B1932F9295EC
:10051000990F990F907C2F72922B32FB332730F971
:100520003295307F932B97B997B1907F982B97B9DD
:10053000369A3699FECF84B195B10895CF93DF9363
:10054000C82FD0E0FE01E25EFF4F8491FE01EC5D1A
:10055000FF4FC491CC2339F1D0E0FE01E25DFF4FA3
:10056000A491B0E0FE01E45DFF4FC491D0E02FB74D
:10057000611108C0F8949C91809598239C93988170
:1005800098230AC0623051F4F8949C91382F30952A
:1005900093239C939881982B988304C0F8949C9102
:1005A000982B9C932FBFDF91CF910895A82FB0E097
:1005B000FD01E25EFF4F9491FD01EC5DFF4FE49180
:1005C000EE2311F1811103C08AB58F7304C081300D
:1005D00021F48AB58F7C8ABD05C0843019F48CB5AE
:1005E0008F7C8CBDF0E0E45DFF4FA491B0E02FB7AD
:1005F000611105C0F8948C919095892303C0F894FB
:100600008C91892B8C932FBF0895282F30E0F9010E
:10061000E25EFF4F9491F901EC5DFF4FE491EE2310
:10062000E1F0811103C08AB58F7304C0813021F4D9
:100630008AB58F7C8ABD05C0843019F48CB58F7C57
:100640008CBDF0E0E65DFF4FE491F0E020812923CE
:1006500081E090E021F480E0089580E090E008954A
:0C06600035DF5CDEAFDDFECFF894FFCF8D
:10066C00D007F401F40164006400640064006400C9
:10067C00640064006400640064006400640064004E
:10068C006400F401F401640064006400640064001C
:10069C00640064006400640064006400640064002E
:1006AC006400F401F40164006400640064006400FC
:1006BC00640064006400640064006400640064000E
:1006CC006400F401F40164006400640064006400DC
:1006DC0064006400640064006400640064006400EE
:0206EC006400A8
:00000001FF
