:1000000056C070C070C06EC05AC47EC06BC06AC09B
:1000100069C068C067C066C065C064C063C00000D6
:1000200000000101010202030405050607090A0B8D
:100030000C0E0F1112141517191B1D1F2123252833
:100040002A2C2F313436393B3E414346494C4F52DE
:1000500055585A5D6164676A6D707376797C8083E8
:1000600086898C8F9295989B9EA2A5A7AAADB0B3C6
:10007000B6B9BCBEC1C4C6C9CBCED0D3D5D7DADCE5
:10008000DEE0E2E4E6E8EAEBEDEEF0F1F3F4F5F6BB
:10009000F8F9FAFAFBFCFDFDFEFEFEFFFFFF010290
:1000A000040810200101010101010038003711246A
:1000B0001FBECFE5D2E0DEBFCDBF10E0A0E6B0E0CE
:1000C000E8EAFDE002C005900D92A836B107D9F725
:1000D00021E0A8E6B0E001C01D92AD39B207E1F71A
:1000E0001FD560C68DCF1F920F920FB60F921124AD
:1000F0008F9386B386958170809392018F910F9034
:100100000FBE0F901F9018951F920F920FB60F926F
:1001100011242F933F935F936F937F938F939F93BC
:10012000EF93FF9380916A008BBD2091680030911E
:100130006900E32FFF27E559FF4F808160917A0125
:1001400070E090E033D590936A00809178019091AF
:100150007901820F931F9093690080936800FF914B
:10016000EF919F918F917F916F915F913F912F912F
:100170000F900FBE0F901F901895CF93DF9381E0E3
:1001800080937F0119BE83E046D4EC011092830175
:10019000109282018FEF93E0909381018093800110
:1001A00083E039D48C1B9D0B97FF03C091958195FB
:1001B00091090597ACF3C0E0D0E083E02CD4209106
:1001C000820130918301281739072CF49093830121
:1001D000809382010DC020918001309181018217AE
:1001E00093072CF4909381018093800101C02196A4
:1001F0008FE19EE40197F1F700C00000C83CD105F3
:10020000E4F2609180017091810181E090E0A4D5D9
:10021000609182017091830183E090E09DD51092FE
:100220007F0182E089BFDF91CF910895CF93C82FDE
:100230001092660080917E0181110EC08C2FEBD34D
:100240009C01220F232F221F330B80916400821305
:1002500003C081E080937E0180917E018823B1F00C
:100260008C2FD9D39C0195958795959587958093EB
:100270007B0160916B0170E090E098D490937A01DB
:10028000220F232F221F330B20936400CF91089558
:100290004F925F926F927F92AF92BF92CF92DF9216
:1002A000EF92FF920F931F93182F10927E0180916F
:1002B000660081110EC0812FAED39C013595279524
:1002C0003595279580916500821303C081E0809366
:1002D0006600809166008823E9F1812F9CD39C0100
:1002E000359527953595279520936500A090860133
:1002F000B0908701CC24B7FCC094DC2CE090820144
:10030000F09083010027F7FC0095102F40908001AA
:10031000509081019201442737FD4095542FBC0134
:10032000882777FD8095982FE0918401F0918501D1
:100330002F01662457FC6094762C7F926F925F9217
:100340004F92F2D370937901609378010F900F90E0
:100350000F900F901F910F91FF90EF90DF90CF9033
:10036000BF90AF907F906F905F904F900895EEE1B7
:10037000F0E0ABE6B0E084918D93319680E0EE3909
:10038000F807C9F78FEF8093EB00EBEEF0E0ACEEEF
:10039000B0E082918D9380E0EC36F807D1F70895B4
:1003A0008BE690E0FC012E2F281B219321E0EB36F9
:1003B000F207C9F70895EBE6F0E080E090E0282F1F
:1003C000220F2193019680389105C9F7EBEEF0E0FA
:1003D0008FEF90E0819302978F3F2FEF9207D1F735
:1003E0000895EBE6F0E08FEF819390E0EB3EF907A4
:1003F000D9F7EBEEF0E081E0819391E0EB36F9077D
:10040000D9F70895EBE6F0E081E0819391E0EB36D7
:10041000F907D9F708958230910571F02CF400970F
:1004200049F0019741F008958330910531F0049728
:1004300029F008959CCFBFCFD4CFB2CF60E080E049
:1004400040D3E0CFCF93DF93C0916E01D0916F0185
:10045000CC0FDD1FC059DE4F20916C0130916D0132
:1004600048815981241B350B30936D0120936C0119
:10047000D2D2959587959595879599838883209174
:100480006E0130916F01F901EE0FFF1FE059FE4F31
:1004900080916C0190916D0140815181840F951F75
:1004A00090936D0180936C012F5F3F4F2430310595
:1004B0002CF430936F0120936E0104C010926F01F1
:1004C00010926E0197FD0396959587959595879562
:1004D00080936B01DF91CF9108958130910571F088
:1004E00082309105A1F0892BF1F481E090E09093A6
:1004F00087018093860182E790E011C082E790E057
:10050000909387018093860186E297E008C086E297
:1005100097E090938701809386018CE49EE090930E
:10052000850180938401089560E080E0CAD28FE362
:100530009CE90197F1F700C0000061E080E0C1C2D2
:1005400060E080E0BED28FE39CE90197F1F700C044
:10055000000061E080E0B5D28FE39CE90197F1F7FC
:1005600000C0000060E080E0ACD28FE39CE901971E
:10057000F1F700C0000061E080E0A3C2CF93DF93F9
:10058000C1E0D1E080919201882301F18091900136
:1005900090919101019690939101809390018FE148
:1005A0009EE40197F1F700C0000080918D018C1747
:1005B00049F380919001909191010B971CF3D09396
:1005C0008C01B2DF83E090E031DEDCCF80919201DC
:1005D0008111A5C010928D0180919001909191019F
:1005E000181619060CF09BC0209192018FEC97E031
:1005F0000197F1F700C0000080918E0190918F016A
:10060000019690938F0180938E0130919201332354
:1006100019F0222309F478C08436910529F78091D6
:100620008A0190918B01009759F580918C01882364
:1006300019F010928C0117C077DF80917C019091A6
:100640007D010196853091052CF490937D01809376
:100650007C0104C010927D0110927C0180917C018C
:1006600090917D01D8DE109291011092900110922C
:100670008F0110928E0110928B0110928A014FC04F
:100680008130910539F55CDF809188019091890175
:100690000196833091052CF4909389018093880111
:1006A00004C0109289011092880180918801909174
:1006B000890113DF81E0809366001092910110920E
:1006C000900110928F0110928E0110928B01109266
:1006D0008A0117C002970CF487CF60E080E0F1D167
:1006E0004CDD61E080E0EDD110929101109290011B
:1006F00010928F0110928E0110928B0110928A013C
:1007000081E080938D010BC020918A0130918B0193
:100710002F5F3F4F30938B0120938A017DCFDF9174
:10072000CF9108952BDF80917F0181110EC083E06E
:1007300090E0AEDD81E086DE80917B0160916B010F
:1007400070E090E033D290937A010895CF92DF92D7
:10075000EF92FF920F931F93CF93DF938C01C0E032
:10076000D0E06B01EE24D7FCE094FE2CC017D1073B
:1007700074F461E080E0A5D1C701B6010ED160E05C
:1007800080E09FD1C701B60108D12196EFCFDF915C
:10079000CF911F910F91FF90EF90DF90CF90089530
:1007A00017B83D9A87B18C6087B96AEF70E080E036
:1007B00090E0F3D0369A3699FECF85B1883628F08E
:1007C00064E670E088E090E004C06AEF70E081E0E9
:1007D00090E0BCCF82E080BD8CE084BB61E080E033
:1007E00038D161E084E035D160E083E032D160E06F
:1007F00082E02FD160E081E02CD1D2DF17B881E018
:1008000090E0A5D2909381018093800183E090E0F5
:100810009ED2009711F48FEF93E090938301809321
:10082000820187B5826087BD87EC90E00197F1F780
:1008300000C0000007B400FEFDCF87B5846087BD0F
:10084000F89480E68CBD8FEF8DBD81E080BF93E092
:100850009ABD83BF82E089BF8BB780628BBFA99AA4
:10086000789481E090E0909389018093880182E7F9
:1008700090E0909387018093860186E297E09093C1
:1008800085018093840190937901809378018FEFA3
:1008900080937B0180936B0161E080E012D167CD92
:1008A00083B7887F83BF8AB58C7F81608ABD83B719
:1008B000877F83BF83B7887F836083BF08951F923C
:1008C0000F920FB60F9211242F933F938F939F9304
:1008D000AF93BF938091940190919501A09196015F
:1008E000B09197013091930126E0230F2D3730F01E
:1008F00029E8230F0396A11DB11D03C00296A11D77
:10090000B11D209393018093940190939501A0933E
:100910009601B09397018091980190919901A091CF
:100920009A01B0919B010196A11DB11D8093980180
:1009300090939901A0939A01B0939B01BF91AF91BD
:100940009F918F913F912F910F900FBE0F901F900D
:1009500018953FB7F8948091980190919901A091D2
:100960009A01B0919B012FB508B602FE05C02F3F3A
:1009700019F00196A11DB11D3FBF6627782F892F61
:100980009A2F620F711D811D911D43E0660F771F25
:10099000881F991F4A95D1F70895CF92DF92EF9261
:1009A000FF92CF93DF936B017C01D3DFEB01C11486
:1009B000D104E104F10471F0CCDF6C1B7D0B683EC7
:1009C0007340A8F381E0C81AD108E108F108C851C2
:1009D000DC4FEDCFDF91CF91FF90EF90DF90CF9084
:1009E0000895789480B7806880BF80B7806480BFA6
:1009F0008CB580648CBD8FEF8DBD80B7807F8760A4
:100A000080BF89B7846089BF4BDF86B1887F8660ED
:100A100086B9379A0895863008F0865030919C0147
:100A200027B1932F9295990F990F907C2F72922B4B
:100A300032FB332730F93295307F932B97B997B13A
:100A4000907F982B97B9369A3699FECF84B195B19D
:100A50000895CF93DF93C82FD0E0FE01E256FF4FF9
:100A60008491FE01EC55FF4FC491CC2339F1D0E0C5
:100A7000FE01E455FF4FA491B0E0FE01E655FF4FA3
:100A8000C491D0E02FB7611108C0F8949C91809573
:100A900098239C93988198230AC0623051F4F8946B
:100AA0009C91382F309593239C939881982B988311
:100AB00004C0F8949C91982B9C932FBFDF91CF9109
:100AC0000895A82FB0E0FD01E256FF4F9491FD017B
:100AD000EC55FF4FE491EE2311F1811103C08AB56B
:100AE0008F7304C0813021F48AB58F7C8ABD05C024
:100AF000843019F48CB58F7C8CBDF0E0E655FF4F47
:100B0000A491B0E02FB7611105C0F8948C91909535
:100B1000892303C0F8948C91892B8C932FBF08955F
:100B200060DF58DEFFDDFECF4F925F926F927F92C3
:100B3000AF92BF92CF92DF92EF92FF920F931F93EB
:100B4000CF93DF93CDB7DEB729013A0129893A89DE
:100B50004B895C8964197509860997092A193B092B
:100B60004C095D0950D0A32FF42FE52FE418F508A8
:100B700006091709622F7A2F8F2F9E2FA801970140
:100B800026D02A0D3B1D4C1D5D1DCA01B901DF9108
:100B9000CF911F910F91FF90EF90DF90CF90BF907A
:100BA000AF907F906F905F904F90089500245527ED
:100BB00004C0080E591F880F991F009729F07695D9
:100BC0006795B8F37105B9F7802D952F0895052E17
:100BD00097FB16F400940FD057FD05D068D007FCA2
:100BE00002D046F408C050954095309521953F4F6E
:100BF0004F4F5F4F089590958095709561957F4F09
:100C00008F4F9F4F089568940013E894A0E0B0E0E0
:100C1000EBE0F6E01DC0EFEFE7F959016A015E2352
:100C2000550FEE08FE2C87019B01AC019E23990F06
:100C3000660B762FCB015DD0CDB7DEB7EAE024C0DE
:100C40002F923F924F925F926F927F928F929F92DC
:100C5000AF92BF92CF92DF92EF92FF920F931F93CA
:100C6000CF93DF93CDB7DEB7CA1BDB0B0FB6F8947B
:100C7000DEBF0FBECDBF09942A88398848885F84BB
:100C80006E847D848C849B84AA84B984C884DF802C
:100C9000EE80FD800C811B81AA81B981CE0FD11D10
:100CA0000FB6F894DEBF0FBECDBFED010895A1E2EF
:100CB0001A2EAA1BBB1BFD010DC0AA1FBB1FEE1FD6
:100CC000FF1FA217B307E407F50720F0A21BB30B21
:100CD000E40BF50B661F771F881F991F1A9469F79D
:100CE00060957095809590959B01AC01BD01CF01F9
:100CF0000895DF93CF939F92A0E49A2E0024D00111
:100D0000E001F00116950795F794E794D794C794FE
:100D1000B794A79448F41068A20FB31FC41FD51F3F
:100D2000E61FF71F081E191E220F331F441F551FF1
:100D3000661F771F881F991F9A9421F79D01AE01A6
:100D4000BF01C00111249F90CF91DF910895A8E1C8
:100D5000B0E042E050E006C00196272F12D010C04C
:100D6000DC01CB01FC01E199FECF06C0FFBBEEBB6D
:100D7000E09A31960DB20D9241505040B8F7089567
:100D8000262FE199FECF9FBB8EBBE09A01970DB253
:100D9000021639F01CBA2DBB0FB6F894E29AE19A0C
:080DA0000FBE0895F894FFCF87
:080DA8000100000007FF01003B
:00000001FF
